:020000040800F2
:1000000070040020010100086B0F0008C90C0008F3
:10001000690F00086D0100082D10000800000000A5
:100020000000000000000000000000008F0F00082A
:10003000B5010008000000008D0F0008910F0008B6
:100040001B0100081B0100081B0100081B01000820
:100050001B0100081B0100081B0100081B01000810
:100060001B0100081B0100081B0100081B01000800
:100070001B0100081B0100081B0100081B010008F0
:100080001B0100081B0100081B0100081B010008E0
:100090001B0100081B0100081B0100081B010008D0
:1000A0001B0100081B0100081B0100081B010008C0
:1000B0001B0100081B0100081B0100081B010008B0
:1000C0001B0100081B0100081B0100081B010008A0
:1000D0001B0100081B0100081B0100081B01000890
:1000E0001B0100081B0100081B010008DFF80CD0F1
:1000F00000F02AF8004800476D1200087004002044
:100100000648804706480047FEE7FEE7FEE7FEE7B1
:10011000FEE7FEE7FEE7FEE7FEE7FEE7E50F000885
:10012000ED000008D2B201E000F8012B491EFBD21D
:1001300070470022F6E710B513460A4604461946F2
:10014000FFF7F0FF204610BD064C074D06E0E068C3
:1001500040F0010394E8070098471034AC42F6D30E
:10016000FFF7C8FFA0130008C0130008FEE7000057
:100170000E48016821F080710160016841F08071D2
:1001800001600B48016821F001010160016841F044
:10019000010101600021416000BF00BF00BF406855
:1001A00008B100207047012070470000FCED00E01E
:1001B000001000E07047000070B5044600F0F2F84F
:1001C0000546601C02D004480078044400F0EAF8B8
:1001D000401BA042FAD370BD080000202DE9F84F63
:1001E000DFF890A100220AF1040B144601274FF01A
:1001F0000F090BF1040E00BF0B6807FA04F52B4042
:10020000AB4274D1DFF870C14E68A6EB0C086645AE
:100210002BD00DDC032E34D005DC36B3012E19D0E3
:10022000022E2FD11BE0112E16D0122E2AD119E04A
:10023000B8F5881F19D006DCB8F5803F15D0B8F5A1
:10024000801F1FD111E0B8F5001F0ED0B8F5041FB4
:1002500018D10AE0CA6815E0CA68121D12E0CA681F
:1002600008320FE0CA680C320CE08A682AB1012A11
:100270004FF0080203D0456104E0042202E005616A
:1002800000E00022FF2B01D8064601E000F1040641
:100290004FEA840501D9A5F12005D6F800C009FA76
:1002A00005F82CEA080C02FA05F54CEA050CC6F82C
:1002B00000C04D68ED0057D5304DAE6946F00106DF
:1002C000AE61AD6924F0030605F0010500952C4DE3
:1002D00006EB050CDCF80850A6074FEA167809FA79
:1002E00008F6B543274EB04202D1002610E03BE0AD
:1002F000254EB04201D101260AE0244EB04201D180
:10030000022605E0224EB04201D1032600E0042679
:1003100006FA08F62E43CCF808604D68DAF800605B
:10032000ED03554601D51E4300E09E432E604D6807
:10033000DBF80060AD035D4601D51E4300E09E433F
:100340002E604D68DEF80060ED02754601D51E4353
:1003500000E09E432E604D68AD020E4D2E6801D523
:100360001E4300E09E432E60641C102CFFF444AF3B
:10037000BDE8F88F00040140000011100010024099
:100380000000014000080140000C01400010014045
:10039000001401400C0401408068084000D0012096
:1003A0007047000001488068704700000800002086
:1003B00070B504001BD094F83D00002520B984F8E6
:1003C0003C50204600F030F9242084F83D0020689D
:1003D000016821F00101016000F09AFA404A616869
:1003E000914201D83F4900E03F49884201D20120B3
:1003F00070BD3E492368B0FBF1F1596063689342D8
:1004000006D94FF4967359434FF47A73B1FBF3F165
:100410002368491C19626168914210D84900401E46
:10042000B0FBF1F2521CC2F30B02042A01D20420E9
:1004300022E0B0FBF1F0401CC0F30B001CE0A3680D
:10044000CBB301EBC10202EB0116421EB2FBF6F286
:10045000521C42F48042120536D06BB301EBC1024C
:1004600002EB0111401EB0FBF1F0401CC0F30B0089
:1004700040F4804040F400402168C861D4E907019D
:10048000084321680860D4E90310084321688860A4
:10049000D4E9050108432168C8602068016841F07B
:1004A000010101602564202084F83D00256384F863
:1004B0003E50002070BD00E008E001EB4106421E06
:1004C000B2FBF6F2521CC6E70120D5E701EB410171
:1004D000401EB0FBF1F0401CC0F30B00CAE7000067
:1004E000A086010080841E0000093D0040420F00EC
:1004F0002DE9F84F1F4690468A460446DDF82890BD
:10050000FFF750FF064694F83D0020287ED11923BE
:10051000012243492046009600F05DFC00287DD171
:1005200094F83C00012879D0012084F83C00206830
:100530000168C90703D1016841F001010160206829
:10054000016821F400610160212084F83D00102041
:1005500084F83E0000252564C4F82480678531486E
:10056000E062608D208533464A465146204600F0C1
:10057000C1FB28B1206C84F83C5004284CD00DE01D
:10058000206841698069009030E032464946204643
:1005900000F096FC28B1206C042838D00320BDE878
:1005A000F88F606A411C6162216800780861608D83
:1005B000401E6085208D401E80B2208521684A69DA
:1005C000D24352070BD450B1606A421C6262007879
:1005D0000861608D401E6085208D401E208532465A
:1005E0004946204600F0D0FB0028D4D1208D0028B9
:1005F000CBD154F83D0B016841F40071016020201B
:1006000004F81E09E57765770020C8E706E0206852
:10061000016841F4007101600120C0E70220BEE7DB
:10062000020010000000FFFF10B586B0002100910D
:1006300001910291039100680F4988421AD10F4C31
:10064000A06940F00800A061A069694600F00800B8
:100650000490C020009012200190032003900848CD
:10066000FFF7BCFDE06940F40010E061E06900F4D0
:100670000010049006B010BD00540040001002406D
:10068000000C014002488168027811448160704783
:1006900008000020074810B5016841F01001016012
:1006A000032000F067F8002000F006F800F024F8BE
:1006B000002010BD0020024070B50D4D04464FF4DF
:1006C0007A712878B1FBF0F00A490968B1FBF0F0C3
:1006D00000F0E6FA48B9102C07D200222146501E3D
:1006E00000F028F800206C6070BD012070BD000093
:1006F00008000020140000200C4808B5816941F072
:1007000001018161816901F001010091C16941F03C
:100710008051C161C06900F0805000900448416878
:1007200021F0E06141F00071416008BD001002401D
:1007300000000140F0B40E4B1B680C46C3F30223CB
:10074000C3F10705042D00D90425191D072901D27D
:10075000002300E0DB1E012606FA05F1491E2140B8
:1007600099409E40761E16403143F0BC00F0FEBB1F
:100770000CED00E0064900F0070208684FF6FF03A1
:10078000184040EA0220034A104308607047000006
:100790000CED00E00000FA052DE9F047DFF8548188
:1007A00005460E46D8F8000000F00700B0420CD213
:1007B000D8F8001021F007013143C8F80010D8F82C
:1007C000000000F00700B0426FD128684A4C810752
:1007D00012D5400703D5606840F4E0606060287877
:1007E000000703D5606840F4605060606068A968E5
:1007F00020F0F000084360602878C00744D06868A3
:10080000012816D02168022816D0890700294CDA61
:10081000616821F0030101436160FFF7C3FD69686E
:10082000074641F2883001290ED00229814618D0AE
:1008300026E021688903E9E78901E7E7FFF7B2FDD0
:10084000C11B494501D918E081466068C0F38100A9
:100850000128F3D118E000BFFFF7A4FDC11B4945F3
:100860000BD86068C0F381000228F5D10CE000BF0E
:10087000FFF798FDC11B494502D90320BDE8F08769
:10088000606810F00C0FF3D1D8F80010404601F06A
:100890000701B1420BD9016821F007013143016022
:1008A000006800F00700B04201D00120E6E7287898
:1008B000400705D56068E96820F4E060084360609F
:1008C0002878000706D56068296920F4605040EA5E
:1008D000C100606000F02CF86168084AC1F30311A0
:1008E000515CC840064908600020FFF7E5FE002083
:1008F000C4E70000002002400010024088130008F6
:100900001400002001480068704700001400002017
:100910000448054900684968044AC1F30221515C52
:10092000C8407047140000200010024098130008CF
:1009300012A185B00FC98DE80F0014A0144A0068F9
:1009400004905168134801F00C03042B10D0082BBD
:100950000ED1C1F38343C9031DF803000AD55168C2
:1009600004AAC1F34041515C0A4A5043B0FBF1F084
:1009700005B0704708494843FAE700000203040540
:10098000060708090A0B0C0D0E0F101001020000DB
:100990000010024000127A0000093D002DE9F84FD6
:1009A00004460078B94DC00748D06868C0F381009C
:1009B000012807D06868C0F38100022809D168685F
:1009C000C00306D52868800338D5606800286FD03A
:1009D00034E06068B0F5803F0BD010B1B0F5A02FC7
:1009E00011D0286820F480302860286820F4802006
:1009F00002E0286840F480302860606888B1FFF722
:100A0000D1FC064609E0286840F480202860F0E721
:100A1000FFF7C8FC801B642875D828688003F7D5C9
:100A20000CE0FFF7BFFC064605E000BFFFF7BAFC8D
:100A3000801B6428F0D828688003F7D42078944E6F
:100A400080074FF001094FF000083BD5686810F0AF
:100A50000C0F07D06868C0F38100022809D16868CC
:100A6000C00306D42868800714D5206901281FD147
:100A700010E02069B0B1C6F80090FFF793FC07467C
:100A800005E000BFFFF78EFCC01B0228C4D8286811
:100A90008007F7D52868616920F0F80040EAC100B6
:100AA00028600FE0C6F80080FFF77CFC074606E0F0
:100AB000E9E000BFFFF776FCC01B022823D82868B6
:100AC0008007F7D4207800072CD57248A169D9B1E6
:100AD000C0F80090FFF766FC074604E0FFF762FCF1
:100AE000C01B02280FD8686A8007F7D56A484FF400
:100AF000FA510068B0FBF1F0009000BF0098411E71
:100B00000091FAD20EE080E0C0F80080FFF74AFCC6
:100B1000074604E0FFF746FCC01B022875D8686A48
:100B20008007F7D42078400760D5E8690027C00027
:100B300008D4E86940F08050E861E869012700F0D6
:100B40008050009055480168C90513D40168834658
:100B500041F480710160FFF725FC824606E000BF8A
:100B6000FFF720FCA0EB0A0064284ED8DBF8000059
:100B7000C005F5D5E06801280AD008B1052813D0D2
:100B8000286A20F001002862286A20F0040002E0B0
:100B9000286A40F001002862E06841F2883B98B181
:100BA000FFF700FC82460BE0286A40F00400286250
:100BB000EEE700BFFFF7F6FBA0EB0A0159455AD854
:100BC000286A8007F6D50CE0FFF7ECFB824605E0CB
:100BD000FFF7E8FBA0EB0A0159454CD8286A8007CB
:100BE000F6D41FB1E86920F08050E861E06988B36D
:100BF0006968C1F38101022945D00228C6F86080E6
:100C000004D0FFF7CFFB044638E034E0FFF7CAFB1F
:100C1000074604E0FFF7C6FBC01B02282BD8286854
:100C20008001F7D4206AB0F5803F05D16868A168DB
:100C300020F4003008436860D4E90801084369687B
:100C400021F4741108436860C6F86090FFF7AAFBAE
:100C5000044606E015E000BFFFF7A4FB001B0228D6
:100C600009D828688001F7D50BE000BFFFF79AFB91
:100C7000001B022802D90320BDE8F88F28688001F4
:100C8000F4D40020F8E70120F6E70000001002404D
:100C900000004242800442421400002000700040E4
:100CA00010B5401EB0F1807F01D3012010BD4FF080
:100CB000E02460610F21601700F058F90020A06166
:100CC00007202061002010BDFEE701684A69D24379
:100CD00052050CD46FF480624A6104210164002142
:100CE00040F8301F2022427301730120704700201A
:100CF00070470000F8B50446C06A1E460D46174608
:100D0000042807D0012805D010F5803F02D0206BC1
:100D1000122804D12068016841F4807101601346F3
:100D200000224FF001112046009600F054F8A0B9BF
:100D30002069B0F5804F12D00620216800EAD51056
:100D400040F0F000086133463A460E49204600F074
:100D500073F838B1206C042811D00320F8BD05F0D9
:100D6000FE0000E0E8B221680861064933463A46D1
:100D7000891F204600F060F80028EBD1F8BD012063
:100D8000F8BD00000800010070B516460D46044687
:100D90001AE02046FFF799FF08B1012070BD681CDA
:100DA00012D025B1FFF7FEFA801BA8420CD954F8E7
:100DB000400F40F0200044F810090020206020215E
:100DC00061732073032070BD20684069C0434007F1
:100DD000DFD4002070BD2DE9F0471E4690460D4639
:100DE0000446C1F30747DDF8209012E0701C10D0D4
:100DF0002EB1FFF7D7FAA0EB0900B04209D90020C5
:100E000044F8300F20216173A07320730320BDE8E4
:100E1000F0872068012F0AD0806925EA00000004CD
:100E2000000C06D000214145E0D00020EFE74069EA
:100E3000F3E70121F7E700002DE9F0479A469146D4
:100E40000D46044600264FF02008C1F307472AE06C
:100E500020684069C043400512D42068016841F40D
:100E60000071016021686FF4806048610420206493
:100E7000266384F83D8084F83C600120BDE8F0875B
:100E8000B9F1FF3F0FD0B9F1000F05D0FFF78AFA93
:100E9000A0EB0A01494506D944F8306F84F80D806B
:100EA00026730320EAE72068012F07D0D0F8180046
:100EB00025EA00000004000CE0D0C9E74069F7E72C
:100EC00070B516460D4604461AE02046FFF7FDFEB3
:100ED00008B1012070BD681C12D025B1FFF762FA7D
:100EE000801BA8420CD954F8400F40F0200044F871
:100EF000100900202060202161732073032070BD41
:100F000020684069C0430006DFD4002070BD0000A7
:100F100000B585B0002001900290039010488169CF
:100F200041F020018161816901F020010491816912
:100F300041F004018161816901F00401049181693A
:100F400041F0080181618069694600F00800049061
:100F5000022000900348FFF741F905B000BD0000F2
:100F60000010024000080140FEE770470907090E23
:100F7000002806DA00F00F0000F1E02080F8141DD0
:100F8000704700F1E02080F8001470477047704708
:100F9000FFF778BB30B58FB028216846FFF7C9F856
:100FA00014210AA8FFF7C5F801210804CDE90010B3
:100FB0000024029402250491CDE907504FF4E0107B
:100FC00009906846FFF7EAFC0F20CDE90A056802A0
:100FD000CDE90C4002210AA80E94FFF7DDFB0FB00B
:100FE00030BD00000D48016841F001010160416819
:100FF0000B4A1140416001680A4A114001600168D2
:1010000021F480210160416821F4FE0141604FF428
:101010001F0181600449C00308607047001002404E
:101020000000FFF8FFFFF6FE08ED00E0FEE702E03B
:1010300008C8121F08C1002AFAD170477047002063
:1010400001E001C1121F002AFBD17047554B10B5BA
:10105000C11A4FF4FF62984278D02ADC524BA0EBC1
:10106000030198427FD012DC5049401853D0A0F5BC
:101070005060F2386FD090427AD000F61260B0F52E
:10108000005F6AD1862000F0B1F8342085E001F6D7
:101090001261B1F500517CD0B1F57F6F74D001F6CB
:1010A0001801B1F5005F7CD1862000F09FF8322056
:1010B00073E044F2B873C81A994242D014DCA1F527
:1010C000FB61B1F5005135D0914247D001F6126174
:1010D000B1F500511AD0A1F5A061FA3961D186208D
:1010E00000F084F8382058E000F61260B0F50050A7
:1010F00016D000F21E20B0F5005016D0B0F5FF7FDC
:101100004FD1862000F072F8332046E0862000F0B0
:101110006DF8312041E0862000F068F835203CE091
:10112000862000F063F8362037E0862000F05EF875
:10113000372032E0862000F059F839202DE005E014
:1011400011E0862000F052F8232026E0862000F0EF
:101150004DF82A2021E012E00AE022E0862000F08B
:1011600045F8302019E0862000F040F84B2014E0CC
:10117000862000F03BF85E200FE00AE004E08620C5
:1011800000F034F83C2008E0862000F02FF83E20E4
:1011900003E0862000F02AF87520BDE8104000F03A
:1011A00045B810BD9768FF00C738FF0003FD00FF7A
:1011B00010B5802000F01AF80024202000F036F846
:1011C000641C462CF9DB10BD10B5022000F00EF8AF
:1011D000282000F00BF80C2000F008F8802000F028
:1011E00005F8BDE81040FFF7E3BF00001CB500F0B4
:1011F000F00141F00C028DF8042041F008010001DB
:101200008DF8051040F00C018DF8061040F0080034
:101210008DF8070064200090042301AA4E210248A3
:10122000FFF766F91CBD0000180000201CB500F097
:10123000F00141F00D028DF8042041F00901000198
:101240008DF8051040F00D018DF8061040F00900F2
:101250008DF8070064200090042301AA4E21024863
:10126000FFF746F91CBD000018000020FFF712FA36
:10127000FFF790FEFFF74CFE134812494FF48042EF
:1012800001601249416000218160C0E9031241619F
:101290008161C1610162FFF78BF8FEF769FFFFF71B
:1012A00093FF0B4D0B4C02212846FFF775F80028E1
:1012B000F9D100F011F86060FFF7C8FEC820FEF712
:1012C0007BFFF0E70054004018000020A0860100DA
:1012D00000080140000000202DE9F84F264D0024B1
:1012E00002212846FFF758F80028F9D002212846A5
:1012F000FFF752F80028F9D1AB46DFF88080204D87
:101300000026002028705F4602213846FFF744F887
:101310000028F9D0DFF86CA04FF06409BB46022129
:101320005846FFF739F80028287813D0401C287059
:10133000CDF80090D8F80470FFF7E4FAB0FBFAF0AB
:1013400000994843009040464168009AC91B914269
:10135000FAD3E4E70C28C6F11F014FF0010000FAB0
:1013600001F001D9044300E08443761C202EC8DB41
:101370002046BDE8F88F000000080140001000E0A2
:101380000000002040420F000000000000000000AC
:10139000010203040607080900000000010203041B
:1013A000C013000800000020180000002E100008E4
:1013B000D813000818000020580400003E10000850
:1013C000000000000000000001000000100000000C
:0813D0000000000000A24A0425
:04000005080000ED02
:00000001FF
